{
  "_format": "hh-sol-artifact-1",
  "contractName": "NDAIEscrow",
  "sourceName": "contracts/NDAIEscrow.sol",
  "abi": [
    {
      "inputs": [
        {
          "internalType": "address",
          "name": "_teeAuthority",
          "type": "address"
        }
      ],
      "stateMutability": "nonpayable",
      "type": "constructor"
    },
    {
      "anonymous": false,
      "inputs": [
        {
          "indexed": true,
          "internalType": "bytes32",
          "name": "dealId",
          "type": "bytes32"
        },
        {
          "indexed": true,
          "internalType": "address",
          "name": "seller",
          "type": "address"
        },
        {
          "indexed": true,
          "internalType": "address",
          "name": "buyer",
          "type": "address"
        },
        {
          "indexed": false,
          "internalType": "uint256",
          "name": "agreedPrice",
          "type": "uint256"
        },
        {
          "indexed": false,
          "internalType": "uint256",
          "name": "refundedExcess",
          "type": "uint256"
        },
        {
          "indexed": false,
          "internalType": "uint256",
          "name": "timestamp",
          "type": "uint256"
        }
      ],
      "name": "DealAccepted",
      "type": "event"
    },
    {
      "anonymous": false,
      "inputs": [
        {
          "indexed": true,
          "internalType": "bytes32",
          "name": "dealId",
          "type": "bytes32"
        },
        {
          "indexed": false,
          "internalType": "uint256",
          "name": "timestamp",
          "type": "uint256"
        }
      ],
      "name": "DealCancelled",
      "type": "event"
    },
    {
      "anonymous": false,
      "inputs": [
        {
          "indexed": true,
          "internalType": "bytes32",
          "name": "dealId",
          "type": "bytes32"
        },
        {
          "indexed": true,
          "internalType": "address",
          "name": "seller",
          "type": "address"
        },
        {
          "indexed": false,
          "internalType": "uint256",
          "name": "threshold",
          "type": "uint256"
        },
        {
          "indexed": false,
          "internalType": "uint256",
          "name": "timestamp",
          "type": "uint256"
        }
      ],
      "name": "DealCreated",
      "type": "event"
    },
    {
      "anonymous": false,
      "inputs": [
        {
          "indexed": true,
          "internalType": "bytes32",
          "name": "dealId",
          "type": "bytes32"
        },
        {
          "indexed": true,
          "internalType": "address",
          "name": "buyer",
          "type": "address"
        },
        {
          "indexed": false,
          "internalType": "uint256",
          "name": "refundedAmount",
          "type": "uint256"
        },
        {
          "indexed": false,
          "internalType": "uint256",
          "name": "timestamp",
          "type": "uint256"
        }
      ],
      "name": "DealExited",
      "type": "event"
    },
    {
      "anonymous": false,
      "inputs": [
        {
          "indexed": true,
          "internalType": "bytes32",
          "name": "dealId",
          "type": "bytes32"
        },
        {
          "indexed": true,
          "internalType": "address",
          "name": "buyer",
          "type": "address"
        },
        {
          "indexed": false,
          "internalType": "uint256",
          "name": "amount",
          "type": "uint256"
        },
        {
          "indexed": false,
          "internalType": "uint256",
          "name": "budgetCap",
          "type": "uint256"
        }
      ],
      "name": "FundsDeposited",
      "type": "event"
    },
    {
      "inputs": [
        {
          "internalType": "bytes32",
          "name": "_dealId",
          "type": "bytes32"
        },
        {
          "internalType": "uint256",
          "name": "_agreedPrice",
          "type": "uint256"
        }
      ],
      "name": "acceptDeal",
      "outputs": [],
      "stateMutability": "nonpayable",
      "type": "function"
    },
    {
      "inputs": [
        {
          "internalType": "bytes32",
          "name": "_dealId",
          "type": "bytes32"
        }
      ],
      "name": "cancelDeal",
      "outputs": [],
      "stateMutability": "nonpayable",
      "type": "function"
    },
    {
      "inputs": [
        {
          "internalType": "bytes32",
          "name": "_dealId",
          "type": "bytes32"
        },
        {
          "internalType": "address payable",
          "name": "_seller",
          "type": "address"
        },
        {
          "internalType": "uint256",
          "name": "_threshold",
          "type": "uint256"
        }
      ],
      "name": "createDeal",
      "outputs": [],
      "stateMutability": "nonpayable",
      "type": "function"
    },
    {
      "inputs": [
        {
          "internalType": "uint256",
          "name": "",
          "type": "uint256"
        }
      ],
      "name": "dealIds",
      "outputs": [
        {
          "internalType": "bytes32",
          "name": "",
          "type": "bytes32"
        }
      ],
      "stateMutability": "view",
      "type": "function"
    },
    {
      "inputs": [
        {
          "internalType": "bytes32",
          "name": "",
          "type": "bytes32"
        }
      ],
      "name": "deals",
      "outputs": [
        {
          "internalType": "bytes32",
          "name": "dealId",
          "type": "bytes32"
        },
        {
          "internalType": "address payable",
          "name": "seller",
          "type": "address"
        },
        {
          "internalType": "address payable",
          "name": "buyer",
          "type": "address"
        },
        {
          "internalType": "uint256",
          "name": "threshold",
          "type": "uint256"
        },
        {
          "internalType": "uint256",
          "name": "budgetCap",
          "type": "uint256"
        },
        {
          "internalType": "uint256",
          "name": "depositedAmount",
          "type": "uint256"
        },
        {
          "internalType": "uint256",
          "name": "agreedPrice",
          "type": "uint256"
        },
        {
          "internalType": "enum NDAIEscrow.DealStatus",
          "name": "status",
          "type": "uint8"
        },
        {
          "internalType": "uint256",
          "name": "createdAt",
          "type": "uint256"
        },
        {
          "internalType": "uint256",
          "name": "settledAt",
          "type": "uint256"
        }
      ],
      "stateMutability": "view",
      "type": "function"
    },
    {
      "inputs": [
        {
          "internalType": "bytes32",
          "name": "_dealId",
          "type": "bytes32"
        }
      ],
      "name": "depositFunds",
      "outputs": [],
      "stateMutability": "payable",
      "type": "function"
    },
    {
      "inputs": [
        {
          "internalType": "bytes32",
          "name": "_dealId",
          "type": "bytes32"
        }
      ],
      "name": "exitDeal",
      "outputs": [],
      "stateMutability": "nonpayable",
      "type": "function"
    },
    {
      "inputs": [
        {
          "internalType": "bytes32",
          "name": "_dealId",
          "type": "bytes32"
        }
      ],
      "name": "getDeal",
      "outputs": [
        {
          "components": [
            {
              "internalType": "bytes32",
              "name": "dealId",
              "type": "bytes32"
            },
            {
              "internalType": "address payable",
              "name": "seller",
              "type": "address"
            },
            {
              "internalType": "address payable",
              "name": "buyer",
              "type": "address"
            },
            {
              "internalType": "uint256",
              "name": "threshold",
              "type": "uint256"
            },
            {
              "internalType": "uint256",
              "name": "budgetCap",
              "type": "uint256"
            },
            {
              "internalType": "uint256",
              "name": "depositedAmount",
              "type": "uint256"
            },
            {
              "internalType": "uint256",
              "name": "agreedPrice",
              "type": "uint256"
            },
            {
              "internalType": "enum NDAIEscrow.DealStatus",
              "name": "status",
              "type": "uint8"
            },
            {
              "internalType": "uint256",
              "name": "createdAt",
              "type": "uint256"
            },
            {
              "internalType": "uint256",
              "name": "settledAt",
              "type": "uint256"
            }
          ],
          "internalType": "struct NDAIEscrow.Deal",
          "name": "",
          "type": "tuple"
        }
      ],
      "stateMutability": "view",
      "type": "function"
    },
    {
      "inputs": [],
      "name": "getDealCount",
      "outputs": [
        {
          "internalType": "uint256",
          "name": "",
          "type": "uint256"
        }
      ],
      "stateMutability": "view",
      "type": "function"
    },
    {
      "inputs": [
        {
          "internalType": "bytes32",
          "name": "_dealId",
          "type": "bytes32"
        }
      ],
      "name": "getDealStatus",
      "outputs": [
        {
          "internalType": "enum NDAIEscrow.DealStatus",
          "name": "",
          "type": "uint8"
        }
      ],
      "stateMutability": "view",
      "type": "function"
    },
    {
      "inputs": [],
      "name": "owner",
      "outputs": [
        {
          "internalType": "address",
          "name": "",
          "type": "address"
        }
      ],
      "stateMutability": "view",
      "type": "function"
    },
    {
      "inputs": [
        {
          "internalType": "address",
          "name": "_newAuthority",
          "type": "address"
        }
      ],
      "name": "setTEEAuthority",
      "outputs": [],
      "stateMutability": "nonpayable",
      "type": "function"
    },
    {
      "inputs": [],
      "name": "teeAuthority",
      "outputs": [
        {
          "internalType": "address",
          "name": "",
          "type": "address"
        }
      ],
      "stateMutability": "view",
      "type": "function"
    }
  ],
  "bytecode": "0x60806040523480156200001157600080fd5b50604051620028d6380380620028d683398181016040528101906200003791906200019b565b600073ffffffffffffffffffffffffffffffffffffffff168173ffffffffffffffffffffffffffffffffffffffff1603620000a9576040517f08c379a0000000000000000000000000000000000000000000000000000000008152600401620000a0906200022e565b60405180910390fd5b806000806101000a81548173ffffffffffffffffffffffffffffffffffffffff021916908373ffffffffffffffffffffffffffffffffffffffff16021790555033600160006101000a81548173ffffffffffffffffffffffffffffffffffffffff021916908373ffffffffffffffffffffffffffffffffffffffff1602179055505062000250565b600080fd5b600073ffffffffffffffffffffffffffffffffffffffff82169050919050565b6000620001638262000136565b9050919050565b620001758162000156565b81146200018157600080fd5b50565b60008151905062000195816200016a565b92915050565b600060208284031215620001b457620001b362000131565b5b6000620001c48482850162000184565b91505092915050565b600082825260208201905092915050565b7f4e444149457363726f773a207a65726f20616464726573730000000000000000600082015250565b600062000216601883620001cd565b91506200022382620001de565b602082019050919050565b60006020820190508181036000830152620002498162000207565b9050919050565b61267680620002606000396000f3fe6080604052600436106100c25760003560e01c80638da5cb5b1161007f578063c6620db311610059578063c6620db314610276578063d1fc08de146102b3578063dfbe4d1c146102dc578063faa86b4a14610305576100c2565b80638da5cb5b14610206578063945ce82d14610231578063bd1a20fc1461024d576100c2565b8063025ce150146100c757806308a0b338146101045780634234878b1461012d5780634a3a83831461015857806351a6fad51461018357806381cd872a146101c0575b600080fd5b3480156100d357600080fd5b506100ee60048036038101906100e9919061176d565b61032e565b6040516100fb9190611811565b60405180910390f35b34801561011057600080fd5b5061012b6004803603810190610126919061176d565b61035b565b005b34801561013957600080fd5b50610142610667565b60405161014f919061186d565b60405180910390f35b34801561016457600080fd5b5061016d61068b565b60405161017a91906118a1565b60405180910390f35b34801561018f57600080fd5b506101aa60048036038101906101a5919061176d565b610698565b6040516101b791906119d6565b60405180910390f35b3480156101cc57600080fd5b506101e760048036038101906101e2919061176d565b6107f3565b6040516101fd9a99989796959493929190611a10565b60405180910390f35b34801561021257600080fd5b5061021b610894565b604051610228919061186d565b60405180910390f35b61024b6004803603810190610246919061176d565b6108ba565b005b34801561025957600080fd5b50610274600480360381019061026f9190611b04565b610b05565b005b34801561028257600080fd5b5061029d60048036038101906102989190611b57565b610e35565b6040516102aa9190611b84565b60405180910390f35b3480156102bf57600080fd5b506102da60048036038101906102d59190611b9f565b610e59565b005b3480156102e857600080fd5b5061030360048036038101906102fe9190611c0b565b611316565b005b34801561031157600080fd5b5061032c6004803603810190610327919061176d565b611458565b005b60006002600083815260200190815260200160002060070160009054906101000a900460ff169050919050565b60008054906101000a900473ffffffffffffffffffffffffffffffffffffffff1673ffffffffffffffffffffffffffffffffffffffff163373ffffffffffffffffffffffffffffffffffffffff16146103e9576040517f08c379a00000000000000000000000000000000000000000000000000000000081526004016103e090611cbb565b60405180910390fd5b806000600260008381526020019081526020016000206008015403610443576040517f08c379a000000000000000000000000000000000000000000000000000000000815260040161043a90611d27565b60405180910390fd5b60006002600084815260200190815260200160002090506001600481111561046e5761046d61179a565b5b8160070160009054906101000a900460ff1660048111156104925761049161179a565b5b146104d2576040517f08c379a00000000000000000000000000000000000000000000000000000000081526004016104c990611d93565b60405180910390fd5b60038160070160006101000a81548160ff021916908360048111156104fa576104f961179a565b5b02179055504281600901819055506000816005015490506000826005018190555060008260020160009054906101000a900473ffffffffffffffffffffffffffffffffffffffff1673ffffffffffffffffffffffffffffffffffffffff168260405161056590611de4565b60006040518083038185875af1925050503d80600081146105a2576040519150601f19603f3d011682016040523d82523d6000602084013e6105a7565b606091505b50509050806105eb576040517f08c379a00000000000000000000000000000000000000000000000000000000081526004016105e290611e45565b60405180910390fd5b8260020160009054906101000a900473ffffffffffffffffffffffffffffffffffffffff1673ffffffffffffffffffffffffffffffffffffffff16857fbfd9c7eb528975d6586fefe2b8280b7283b192a89eff296df093b516fb10199a8442604051610658929190611e65565b60405180910390a35050505050565b60008054906101000a900473ffffffffffffffffffffffffffffffffffffffff1681565b6000600380549050905090565b6106a061169e565b6002600083815260200190815260200160002060405180610140016040529081600082015481526020016001820160009054906101000a900473ffffffffffffffffffffffffffffffffffffffff1673ffffffffffffffffffffffffffffffffffffffff1673ffffffffffffffffffffffffffffffffffffffff1681526020016002820160009054906101000a900473ffffffffffffffffffffffffffffffffffffffff1673ffffffffffffffffffffffffffffffffffffffff1673ffffffffffffffffffffffffffffffffffffffff168152602001600382015481526020016004820154815260200160058201548152602001600682015481526020016007820160009054906101000a900460ff1660048111156107c2576107c161179a565b5b60048111156107d4576107d361179a565b5b8152602001600882015481526020016009820154815250509050919050565b60026020528060005260406000206000915090508060000154908060010160009054906101000a900473ffffffffffffffffffffffffffffffffffffffff16908060020160009054906101000a900473ffffffffffffffffffffffffffffffffffffffff16908060030154908060040154908060050154908060060154908060070160009054906101000a900460ff1690806008015490806009015490508a565b600160009054906101000a900473ffffffffffffffffffffffffffffffffffffffff1681565b806000600260008381526020019081526020016000206008015403610914576040517f08c379a000000000000000000000000000000000000000000000000000000000815260040161090b90611d27565b60405180910390fd5b60006002600084815260200190815260200160002090506000600481111561093f5761093e61179a565b5b8160070160009054906101000a900460ff1660048111156109635761096261179a565b5b146109a3576040517f08c379a000000000000000000000000000000000000000000000000000000000815260040161099a90611f00565b60405180910390fd5b600034116109e6576040517f08c379a00000000000000000000000000000000000000000000000000000000081526004016109dd90611f6c565b60405180910390fd5b8060030154341015610a2d576040517f08c379a0000000000000000000000000000000000000000000000000000000008152600401610a2490611ffe565b60405180910390fd5b338160020160006101000a81548173ffffffffffffffffffffffffffffffffffffffff021916908373ffffffffffffffffffffffffffffffffffffffff16021790555034816004018190555034816005018190555060018160070160006101000a81548160ff02191690836004811115610aaa57610aa961179a565b5b02179055503373ffffffffffffffffffffffffffffffffffffffff16837f26f97417b32fdaf792dabcb9bfae983a94e40f76f1e4a15bdb874283654b0d663434604051610af8929190611e65565b60405180910390a3505050565b6000600260008581526020019081526020016000206008015414610b5e576040517f08c379a0000000000000000000000000000000000000000000000000000000008152600401610b559061206a565b60405180910390fd5b600073ffffffffffffffffffffffffffffffffffffffff168273ffffffffffffffffffffffffffffffffffffffff1603610bcd576040517f08c379a0000000000000000000000000000000000000000000000000000000008152600401610bc4906120fc565b60405180910390fd5b60008111610c10576040517f08c379a0000000000000000000000000000000000000000000000000000000008152600401610c079061218e565b60405180910390fd5b6040518061014001604052808481526020018373ffffffffffffffffffffffffffffffffffffffff168152602001600073ffffffffffffffffffffffffffffffffffffffff16815260200182815260200160008152602001600081526020016000815260200160006004811115610c8a57610c8961179a565b5b81526020014281526020016000815250600260008581526020019081526020016000206000820151816000015560208201518160010160006101000a81548173ffffffffffffffffffffffffffffffffffffffff021916908373ffffffffffffffffffffffffffffffffffffffff16021790555060408201518160020160006101000a81548173ffffffffffffffffffffffffffffffffffffffff021916908373ffffffffffffffffffffffffffffffffffffffff160217905550606082015181600301556080820151816004015560a0820151816005015560c0820151816006015560e08201518160070160006101000a81548160ff02191690836004811115610d9857610d9761179a565b5b02179055506101008201518160080155610120820151816009015590505060038390806001815401808255809150506001900390600052602060002001600090919091909150558173ffffffffffffffffffffffffffffffffffffffff16837fd9a130bd31ba1ced6f428ab6ecef8dfb811bb39184e95a733761752ab8374c828342604051610e28929190611e65565b60405180910390a3505050565b60038181548110610e4557600080fd5b906000526020600020016000915090505481565b60008054906101000a900473ffffffffffffffffffffffffffffffffffffffff1673ffffffffffffffffffffffffffffffffffffffff163373ffffffffffffffffffffffffffffffffffffffff1614610ee7576040517f08c379a0000000000000000000000000000000000000000000000000000000008152600401610ede90611cbb565b60405180910390fd5b816000600260008381526020019081526020016000206008015403610f41576040517f08c379a0000000000000000000000000000000000000000000000000000000008152600401610f3890611d27565b60405180910390fd5b600060026000858152602001908152602001600020905060016004811115610f6c57610f6b61179a565b5b8160070160009054906101000a900460ff166004811115610f9057610f8f61179a565b5b14610fd0576040517f08c379a0000000000000000000000000000000000000000000000000000000008152600401610fc790611d93565b60405180910390fd5b8060030154831015611017576040517f08c379a000000000000000000000000000000000000000000000000000000000815260040161100e90612220565b60405180910390fd5b806005015483111561105e576040517f08c379a0000000000000000000000000000000000000000000000000000000008152600401611055906122b2565b60405180910390fd5b82816006018190555060028160070160006101000a81548160ff0219169083600481111561108f5761108e61179a565b5b021790555042816009018190555060008160010160009054906101000a900473ffffffffffffffffffffffffffffffffffffffff1673ffffffffffffffffffffffffffffffffffffffff16846040516110e790611de4565b60006040518083038185875af1925050503d8060008114611124576040519150601f19603f3d011682016040523d82523d6000602084013e611129565b606091505b505090508061116d576040517f08c379a000000000000000000000000000000000000000000000000000000000815260040161116490612344565b60405180910390fd5b600084836005015461117f9190612393565b9050600081111561125c5760008360020160009054906101000a900473ffffffffffffffffffffffffffffffffffffffff1673ffffffffffffffffffffffffffffffffffffffff16826040516111d490611de4565b60006040518083038185875af1925050503d8060008114611211576040519150601f19603f3d011682016040523d82523d6000602084013e611216565b606091505b505090508061125a576040517f08c379a000000000000000000000000000000000000000000000000000000000815260040161125190612413565b60405180910390fd5b505b8260020160009054906101000a900473ffffffffffffffffffffffffffffffffffffffff1673ffffffffffffffffffffffffffffffffffffffff168360010160009054906101000a900473ffffffffffffffffffffffffffffffffffffffff1673ffffffffffffffffffffffffffffffffffffffff16877f3c7a5c22a7b4a2b7ff8a18b8529640c0fb64dad85c656e8eafc31a4b93fe8d7488854260405161130693929190612433565b60405180910390a4505050505050565b600160009054906101000a900473ffffffffffffffffffffffffffffffffffffffff1673ffffffffffffffffffffffffffffffffffffffff163373ffffffffffffffffffffffffffffffffffffffff16146113a6576040517f08c379a000000000000000000000000000000000000000000000000000000000815260040161139d906124b6565b60405180910390fd5b600073ffffffffffffffffffffffffffffffffffffffff168173ffffffffffffffffffffffffffffffffffffffff1603611415576040517f08c379a000000000000000000000000000000000000000000000000000000000815260040161140c90612522565b60405180910390fd5b806000806101000a81548173ffffffffffffffffffffffffffffffffffffffff021916908373ffffffffffffffffffffffffffffffffffffffff16021790555050565b8060006002600083815260200190815260200160002060080154036114b2576040517f08c379a00000000000000000000000000000000000000000000000000000000081526004016114a990611d27565b60405180910390fd5b6000600260008481526020019081526020016000209050600060048111156114dd576114dc61179a565b5b8160070160009054906101000a900460ff1660048111156115015761150061179a565b5b14611541576040517f08c379a0000000000000000000000000000000000000000000000000000000008152600401611538906125b4565b60405180910390fd5b8060010160009054906101000a900473ffffffffffffffffffffffffffffffffffffffff1673ffffffffffffffffffffffffffffffffffffffff163373ffffffffffffffffffffffffffffffffffffffff1614806115ec5750600160009054906101000a900473ffffffffffffffffffffffffffffffffffffffff1673ffffffffffffffffffffffffffffffffffffffff163373ffffffffffffffffffffffffffffffffffffffff16145b61162b576040517f08c379a000000000000000000000000000000000000000000000000000000000815260040161162290612620565b60405180910390fd5b60048160070160006101000a81548160ff021916908360048111156116535761165261179a565b5b0217905550428160090181905550827fa6fb41729f084737d213ed5b7fcdb93c21f33f1f0c8faf11744a6d73bf3373f94260405161169191906118a1565b60405180910390a2505050565b60405180610140016040528060008019168152602001600073ffffffffffffffffffffffffffffffffffffffff168152602001600073ffffffffffffffffffffffffffffffffffffffff168152602001600081526020016000815260200160008152602001600081526020016000600481111561171e5761171d61179a565b5b815260200160008152602001600081525090565b600080fd5b6000819050919050565b61174a81611737565b811461175557600080fd5b50565b60008135905061176781611741565b92915050565b60006020828403121561178357611782611732565b5b600061179184828501611758565b91505092915050565b7f4e487b7100000000000000000000000000000000000000000000000000000000600052602160045260246000fd5b600581106117da576117d961179a565b5b50565b60008190506117eb826117c9565b919050565b60006117fb826117dd565b9050919050565b61180b816117f0565b82525050565b60006020820190506118266000830184611802565b92915050565b600073ffffffffffffffffffffffffffffffffffffffff82169050919050565b60006118578261182c565b9050919050565b6118678161184c565b82525050565b6000602082019050611882600083018461185e565b92915050565b6000819050919050565b61189b81611888565b82525050565b60006020820190506118b66000830184611892565b92915050565b6118c581611737565b82525050565b60006118d68261182c565b9050919050565b6118e6816118cb565b82525050565b6118f581611888565b82525050565b611904816117f0565b82525050565b6101408201600082015161192160008501826118bc565b50602082015161193460208501826118dd565b50604082015161194760408501826118dd565b50606082015161195a60608501826118ec565b50608082015161196d60808501826118ec565b5060a082015161198060a08501826118ec565b5060c082015161199360c08501826118ec565b5060e08201516119a660e08501826118fb565b506101008201516119bb6101008501826118ec565b506101208201516119d06101208501826118ec565b50505050565b6000610140820190506119ec600083018461190a565b92915050565b6119fb81611737565b82525050565b611a0a816118cb565b82525050565b600061014082019050611a26600083018d6119f2565b611a33602083018c611a01565b611a40604083018b611a01565b611a4d606083018a611892565b611a5a6080830189611892565b611a6760a0830188611892565b611a7460c0830187611892565b611a8160e0830186611802565b611a8f610100830185611892565b611a9d610120830184611892565b9b9a5050505050505050505050565b611ab5816118cb565b8114611ac057600080fd5b50565b600081359050611ad281611aac565b92915050565b611ae181611888565b8114611aec57600080fd5b50565b600081359050611afe81611ad8565b92915050565b600080600060608486031215611b1d57611b1c611732565b5b6000611b2b86828701611758565b9350506020611b3c86828701611ac3565b9250506040611b4d86828701611aef565b9150509250925092565b600060208284031215611b6d57611b6c611732565b5b6000611b7b84828501611aef565b91505092915050565b6000602082019050611b9960008301846119f2565b92915050565b60008060408385031215611bb657611bb5611732565b5b6000611bc485828601611758565b9250506020611bd585828601611aef565b9150509250929050565b611be88161184c565b8114611bf357600080fd5b50565b600081359050611c0581611bdf565b92915050565b600060208284031215611c2157611c20611732565b5b6000611c2f84828501611bf6565b91505092915050565b600082825260208201905092915050565b7f4e444149457363726f773a2063616c6c6572206973206e6f742054454520617560008201527f74686f7269747900000000000000000000000000000000000000000000000000602082015250565b6000611ca5602783611c38565b9150611cb082611c49565b604082019050919050565b60006020820190508181036000830152611cd481611c98565b9050919050565b7f4e444149457363726f773a206465616c20646f6573206e6f7420657869737400600082015250565b6000611d11601f83611c38565b9150611d1c82611cdb565b602082019050919050565b60006020820190508181036000830152611d4081611d04565b9050919050565b7f4e444149457363726f773a206465616c206e6f742066756e6465640000000000600082015250565b6000611d7d601b83611c38565b9150611d8882611d47565b602082019050919050565b60006020820190508181036000830152611dac81611d70565b9050919050565b600081905092915050565b50565b6000611dce600083611db3565b9150611dd982611dbe565b600082019050919050565b6000611def82611dc1565b9150819050919050565b7f4e444149457363726f773a20726566756e64206661696c656400000000000000600082015250565b6000611e2f601983611c38565b9150611e3a82611df9565b602082019050919050565b60006020820190508181036000830152611e5e81611e22565b9050919050565b6000604082019050611e7a6000830185611892565b611e876020830184611892565b9392505050565b7f4e444149457363726f773a206465616c206e6f7420696e20437265617465642060008201527f7374617465000000000000000000000000000000000000000000000000000000602082015250565b6000611eea602583611c38565b9150611ef582611e8e565b604082019050919050565b60006020820190508181036000830152611f1981611edd565b9050919050565b7f4e444149457363726f773a206d757374206465706f736974203e203000000000600082015250565b6000611f56601c83611c38565b9150611f6182611f20565b602082019050919050565b60006020820190508181036000830152611f8581611f49565b9050919050565b7f4e444149457363726f773a206465706f7369742062656c6f772074687265736860008201527f6f6c640000000000000000000000000000000000000000000000000000000000602082015250565b6000611fe8602383611c38565b9150611ff382611f8c565b604082019050919050565b6000602082019050818103600083015261201781611fdb565b9050919050565b7f4e444149457363726f773a206465616c20616c72656164792065786973747300600082015250565b6000612054601f83611c38565b915061205f8261201e565b602082019050919050565b6000602082019050818103600083015261208381612047565b9050919050565b7f4e444149457363726f773a20696e76616c69642073656c6c657220616464726560008201527f7373000000000000000000000000000000000000000000000000000000000000602082015250565b60006120e6602283611c38565b91506120f18261208a565b604082019050919050565b60006020820190508181036000830152612115816120d9565b9050919050565b7f4e444149457363726f773a207468726573686f6c64206d757374206265203e2060008201527f3000000000000000000000000000000000000000000000000000000000000000602082015250565b6000612178602183611c38565b91506121838261211c565b604082019050919050565b600060208201905081810360008301526121a78161216b565b9050919050565b7f4e444149457363726f773a2070726963652062656c6f77207468726573686f6c60008201527f6400000000000000000000000000000000000000000000000000000000000000602082015250565b600061220a602183611c38565b9150612215826121ae565b604082019050919050565b60006020820190508181036000830152612239816121fd565b9050919050565b7f4e444149457363726f773a2070726963652065786365656473206465706f736960008201527f7400000000000000000000000000000000000000000000000000000000000000602082015250565b600061229c602183611c38565b91506122a782612240565b604082019050919050565b600060208201905081810360008301526122cb8161228f565b9050919050565b7f4e444149457363726f773a2073656c6c6572207061796d656e74206661696c6560008201527f6400000000000000000000000000000000000000000000000000000000000000602082015250565b600061232e602183611c38565b9150612339826122d2565b604082019050919050565b6000602082019050818103600083015261235d81612321565b9050919050565b7f4e487b7100000000000000000000000000000000000000000000000000000000600052601160045260246000fd5b600061239e82611888565b91506123a983611888565b92508282039050818111156123c1576123c0612364565b5b92915050565b7f4e444149457363726f773a20627579657220726566756e64206661696c656400600082015250565b60006123fd601f83611c38565b9150612408826123c7565b602082019050919050565b6000602082019050818103600083015261242c816123f0565b9050919050565b60006060820190506124486000830186611892565b6124556020830185611892565b6124626040830184611892565b949350505050565b7f4e444149457363726f773a2063616c6c6572206973206e6f74206f776e657200600082015250565b60006124a0601f83611c38565b91506124ab8261246a565b602082019050919050565b600060208201905081810360008301526124cf81612493565b9050919050565b7f4e444149457363726f773a207a65726f20616464726573730000000000000000600082015250565b600061250c601883611c38565b9150612517826124d6565b602082019050919050565b6000602082019050818103600083015261253b816124ff565b9050919050565b7f4e444149457363726f773a2063616e206f6e6c792063616e63656c20756e667560008201527f6e646564206465616c7300000000000000000000000000000000000000000000602082015250565b600061259e602a83611c38565b91506125a982612542565b604082019050919050565b600060208201905081810360008301526125cd81612591565b9050919050565b7f4e444149457363726f773a206e6f7420617574686f72697a6564000000000000600082015250565b600061260a601a83611c38565b9150612615826125d4565b602082019050919050565b60006020820190508181036000830152612639816125fd565b905091905056fea26469706673582212204647357289efd07c193996291454bf4c529a9983bf29d88539988691fc55b0f864736f6c63430008140033",
  "linkReferences": {},
  "deployedLinkReferences": {}
}